:100000000C942A000C9447000C9447000C94470071
:100010000C9447000C9447000C9447000C94470044
:100020000C9447000C9447000C9447000C94470034
:100030000C9447000C9447000C9447000C94470024
:100040000C9447000C9447000C9447000C94470014
:100050000C94470011241FBECFE5D8E0DEBFCDBF12
:1000600010E0A0E6B0E0E4E0F8E002C005900D92F8
:10007000AE36B107D9F720E0AEE6B0E001C01D9280
:10008000A037B207E1F70E9456020C9400040C94CA
:10009000000087B1806487B987B1806887B986B16D
:1000A000806886B986B1826086B986B1846086B977
:1000B000089586B1806486B9349BFECF86B1806195
:1000C00086B924B185B190E0982F8827822B0895B6
:1000D000823419F118F4813439F008958334B1F180
:1000E000843409F44CC00895413059F42AB381E0B6
:1000F00090E002C0880F991F6A95E2F7822B8ABBB5
:1001000008952AB381E090E002C0880F991F6A9594
:10011000E2F7809582238ABB0895413059F427B3D2
:1001200081E090E002C0880F991F6A95E2F7822B68
:1001300087BB089527B381E090E002C0880F991F24
:100140006A95E2F78095822387BB0895413059F480
:1001500024B381E090E002C0880F991F6A95E2F70E
:10016000822B84BB089524B381E090E002C0880F05
:10017000991F6A95E2F78095822384BB08954130E8
:1001800059F421B381E090E002C0880F991F6A956D
:10019000E2F7822B81BB089521B381E090E002C099
:1001A000880F991F6A95E2F78095822381BB089595
:1001B000823419F118F4813439F008958334B1F19F
:1001C000843409F44CC00895413059F42BB381E0D4
:1001D00090E002C0880F991F6A95E2F7822B8BBBD3
:1001E00008952BB381E090E002C0880F991F6A95B3
:1001F000E2F7809582238BBB0895413059F428B3F0
:1002000081E090E002C0880F991F6A95E2F7822B87
:1002100088BB089528B381E090E002C0880F991F41
:100220006A95E2F78095822388BB0895413059F49E
:1002300025B381E090E002C0880F991F6A95E2F72C
:10024000822B85BB089525B381E090E002C0880F22
:10025000991F6A95E2F78095822385BB0895413006
:1002600059F422B381E090E002C0880F991F6A958B
:10027000E2F7822B82BB089522B381E090E002C0B6
:10028000880F991F6A95E2F78095822382BB0895B3
:100290006295607F823479F018F4813431F00895EA
:1002A000833479F0843499F008958BB38F708BBBCD
:1002B0008BB3862B8BBB88B38F7088BB88B3862BA0
:1002C00088BB85B38F7085BB85B3862B85BB82B316
:1002D0008F7082BB82B3682B62BB089541E060E0FF
:1002E00082E40E94D8008FE99FE00197F1F700C0F7
:1002F000000040E060E082E40E94D8008FE99FE0C7
:100300000197F1F700C000000895CF93C82F682F20
:1003100062956F7084E40E94480140E061E082E4ED
:100320000E94D8000E946E016C2F84E40E94480154
:1003300040E061E082E40E94D8000E946E018FECF0
:1003400097E00197F1F700C00000CF9108952FEFDB
:1003500081EE94E0215080409040E1F700C0000021
:1003600041E064E084E40E94680041E065E084E4E8
:100370000E94680041E066E084E40E94680041E079
:1003800067E084E40E94680041E060E082E40E944B
:10039000680041E062E082E40E94680041E061E0C0
:1003A00082E40E94680040E062E082E40E94D8009B
:1003B00082E00E9485018FE19EE40197F1F700C081
:1003C000000088E20E9485018FEC97E00197F1F729
:1003D00000C000008CE00E9485018FEC97E001973F
:1003E000F1F700C0000081E00E9485018FE19EE4EA
:1003F0000197F1F700C0000086E00E9485018FECB4
:1004000097E00197F1F700C000000895CF93C82F3F
:10041000682F62956F7084E40E94480141E061E0BA
:1004200082E40E94D8000E946E016C2F84E40E9436
:10043000480141E061E082E40E94D8000E946E0120
:100440008FEC97E00197F1F700C00000CF9108957D
:10045000CF93DF93EC0103C00E94060221968881AE
:100460008111FACFDF91CF9108959FEF980F9230CD
:1004700070F4613170F4662371F0813019F42FE764
:10048000260F0AC0823041F42FEB260F05C020E86A
:1004900003C020E801C020E8822F0E9485018FEC74
:1004A00097E00197F1F700C0000008950E94A701AE
:1004B0000E94490080E690E00E9428020E945900B4
:1004C000BC0180E090E00E94F60220E030E040E8CD
:1004D0005EE30E945C030E94C70270936F0060930A
:1004E0006E006A30710598F46DE081E00E9435027B
:1004F00080E30E94060280916E00805D0E940602E9
:100500008FED0E94060283E40E940602D7CF643674
:100510007105A0F66DE081E00E94350220916E0029
:1005200030916F00ADECBCEC0E94F103969587957D
:100530009695879596958795805D0E9406024091D5
:100540006E0050916F009A01ADECBCEC0E94F1037B
:100550009695879596958795969587959C01220FF8
:10056000331F880F991F880F991F880F991F820FBB
:10057000931F9A01281B390BC901805D0E94060256
:100580008FED0E94060283E40E94060297CF0E942C
:100590003B0388F09F5798F0B92F9927B751B0F0D7
:1005A000E1F0660F771F881F991F1AF0BA95C9F7F7
:1005B00014C0B13091F00E945503B1E008950C943D
:1005C0005503672F782F8827B85F39F0B93FCCF3F0
:1005D000869577956795B395D9F73EF49095809574
:1005E000709561957F4F8F4F9F4F0895E89409C094
:1005F00097FB3EF490958095709561957F4F8F4F56
:100600009F4F9923A9F0F92F96E9BB279395F6956B
:10061000879577956795B795F111F8CFFAF4BB0FE9
:1006200011F460FF1BC06F5F7F4F8F4F9F4F16C04D
:10063000882311F096E911C0772321F09EE8872FD7
:10064000762F05C0662371F096E8862F70E060E093
:100650002AF09A95660F771F881FDAF7880F96950C
:10066000879597F9089557FD9058440F551F59F0F5
:100670005F3F71F04795880F97FB991F61F09F3F8F
:1006800079F087950895121613061406551FF2CFB8
:100690004695F1DF08C0161617061806991FF1CF08
:1006A00086957105610508940895E894BB2766272F
:1006B0007727CB0197F908950E946F030C94E0030C
:1006C0000E94D20338F00E94D90320F0952311F044
:1006D0000C94C9030C94CF0311240C9456030E946C
:1006E000330370F3959FC1F3950F50E0551F629F40
:1006F000F001729FBB27F00DB11D639FAA27F00D7B
:10070000B11DAA1F649F6627B00DA11D661F829FA1
:100710002227B00DA11D621F739FB00DA11D621F86
:10072000839FA00D611D221F749F3327A00D611DA3
:10073000231F849F600D211D822F762F6A2F112485
:100740009F5750409AF0F1F088234AF0EE0FFF1FB8
:10075000BB1F661F771F881F91505040A9F79E3F0F
:10076000510580F00C94C9030C9456035F3FE4F3E9
:10077000983ED4F3869577956795B795F795E79565
:100780009F5FC1F7FE2B880F911D9695879597F96E
:10079000089597F99F6780E870E060E008959FEF03
:1007A00080EC089500240A94161617061806090608
:1007B000089500240A9412161306140605060895D7
:1007C000092E0394000C11F4882352F0BB0F40F45F
:1007D000BF2B11F460FF04C06F5F7F4F8F4F9F4F9F
:1007E0000895A29FB001B39FC001A39F700D811D0A
:1007F0001124911DB29F700D811D1124911D08952A
:04080000F894FFCF9A
:0E08040074656D70657261747572653D0000FB
:00000001FF
